:1000000008C1000035C1000033C1000031C100004B
:100010002FC100002DC100002BC1000029C100002C
:1000200027C1000025C1000023C1000021C100003C
:100030001FC100001DC100001BC1000019C100004C
:1000400017C1000015C1000013C1000011C100005C
:100050000FC100000DC100000BC10000EBC3000088
:1000600007C100005AC400002FC4000001C10000F5
:10007000FFC00000FDC00000FBC00000F9C0000090
:10008000F7C00000F5C00000F3C00000F1C00000A0
:10009000EFC00000EDC00000EBC00000E9C00000B0
:1000A000E7C00000E5C00000E3C00000E1C00000C0
:1000B000DFC00000DDC00000DBC00000D9C00000D0
:1000C000D7C00000D5C00000D3C00000D1C00000E0
:1000D000CFC00000CDC00000CBC00000C9C00000F0
:1000E000C7C00000A202A502940298029C02DC0292
:1000F000A902AD02B302B702BB02C102C502C90226
:10010000DC02CF02D302D70200000A0B02090C0D59
:100110000E080703040100000000000000000000BA
:1001200000000000000000000000000000000000CF
:10013000000000001211100000000000000000008C
:1001400000000000000000000000000000000000AF
:100150002200250028002B002E003100340002016F
:100160000000050108010B01000021002400270008
:100170002A002D00300033000101000004010701B6
:100180000A0105050505070508080808020202021C
:100190000A0A080804040404010101010101010123
:1001A0000303030303030303040707070C0C0C0CEE
:1001B0000C0C0C0C020202020606060606060606D7
:1001C0000B0B0B0B0B0B0B0B010210202008081064
:1001D00020401020408002010201080402010102B7
:1001E0000408102040808040201008040201800490
:1001F00002018040201008040201080402010102EB
:100200000408102040800102040810204080C3042C
:10021000260711241FBECFEFD1E2DEBFCDBF00E025
:100220000CBF22E0A8E2B2E001C01D92A43EB207DA
:10023000E1F712E0A0E0B2E0E0EAF3E100E00BBF9A
:1002400002C007900D92A832B107D9F711E0C8E0BB
:10025000D1E000E005C021970109802FFE0167D69B
:10026000C730D10780E00807B1F7C7D30C94BF09A6
:10027000C7CE0895CF92DF92EF92FF920F931F9314
:10028000CF93DF936C017A018B01C0E0D0E0CE15F3
:10029000DF0581F0D8016D918D01D601ED91FC91C2
:1002A0000190F081E02DC6011995892B11F021965E
:1002B000EECF7E01C701DF91CF911F910F91FF908B
:1002C000EF90DF90CF90089580E090E00895FC01DA
:1002D000538D448D252F30E0842F90E0821B930BAB
:1002E000541710F0CF96089501970895FC01918D51
:1002F000828D981761F0828DDF01A80FB11D5D9688
:100300008C91928D9F5F9F73928F90E008958FEFF5
:100310009FEF0895FC01918D828D981731F0828DA9
:10032000E80FF11D858D90E008958FEF9FEF089500
:10033000FC01918D228D892F90E0805C9F4F821B64
:1003400091098F73992708958DE392E0F1DF21E001
:10035000892B09F420E0822F0895FC01848DDF01B0
:10036000A80FB11DA35ABF4F2C91848D90E0019628
:100370008F739927848FA689B7892C93A089B18917
:100380008C91837080648C93938D848D981306C0B8
:100390000288F389E02D80818F7D80830895EF921C
:1003A000FF920F931F93CF93DF93EC0181E0888F2F
:1003B0009B8D8C8D981305C0E889F989808185FD16
:1003C00025C0F62E0B8D10E00F5F1F4F0F73112706
:1003D000E02E8C8DE8120BC00FB607FCFACFE8892F
:1003E000F989808185FFF5CFCE01B7DFF2CF8B8D04
:1003F000FE01E80FF11DE35AFF4FF0829FB7F8941A
:100400000B8FEA89FB89808180620AC09FB7F894CC
:10041000EE89FF896083E889F9898081837080642F
:1004200080839FBF81E090E0DF91CF911F910F917A
:10043000FF90EF900895CF93DF93EC01888D882390
:10044000C1F0EA89FB89808185FD05C0A889B98949
:100450008C9186FD0EC00FB607FCF5CF808185FF1D
:10046000F2CFA889B9898C9185FFEDCFCE0175DFD8
:10047000E8CFDF91CF91089580E090E0892B19F0CB
:1004800063DF811125C080E090E0892B41F080E09E
:1004900090E0892B21F00E94000081111CC080E0B7
:1004A00090E0892B41F080E090E0892B21F00E94C0
:1004B0000000811113C080E090E0892BA1F080E062
:1004C00090E0892B81F00E94000081110AC00895FC
:1004D0000E940000D8CF0E940000E1CF0E940000DF
:1004E000EACF0C9400000895362F90E0FC01E85FFD
:1004F000FE4F4491FC01E853FE4F2491FC01EE575E
:10050000FE4F9491992309F46BC0442309F454C01D
:1005100050E0FA013197E231F10508F04DC088272B
:10052000EE58FF4F8F4F03C5809180008F7707C033
:10053000809180008F7D03C080918000877F8093B1
:1005400080003AC084B58F7702C084B58F7D84BDAA
:1005500033C08091B0008F7703C08091B0008F7D51
:100560008093B00029C0809190008F7707C0809160
:1005700090008F7D03C080919000877F80939000D2
:100580001BC08091A0008F7707C08091A0008F7D55
:1005900003C08091A000877F8093A0000DC0809150
:1005A00020018F7707C0809120018F7D03C080914B
:1005B0002001877F80932001E92FF0E0EE0FFF1FDD
:1005C000E25BFE4FA591B4919FB7F894311104C03E
:1005D0008C912095282302C0EC912E2B2C939FBF49
:1005E0000895AED60F931F93CF93DF93EC018881CC
:1005F0009981009729F02A813B812617370780F4DB
:100600008B016F5F7F4FBCD5009761F09983888322
:100610001B830A832C813D81232B11F4FC01108262
:1006200081E001C080E0DF91CF911F910F9108958B
:10063000EF92FF920F931F93CF93DF936115710594
:1006400011F480E01AC041155105B1F07B01EC01B5
:100650008C819D818A01080F191FB801CE01C2DF6C
:10066000882379F3288139818C819D81B701820F9C
:10067000931F7ED61D830C8381E0DF91CF911F9164
:100680000F91FF90EF900895CF93DF93EC01888155
:100690009981009709F0EBD4198218821D821C827F
:1006A0001B821A82DF91CF910895EF92FF920F93F0
:1006B0001F93CF93DF93EC017B018A01BA0192DF94
:1006C000811103C0CE01E0DF06C01D830C83B7019A
:1006D000888199814DD6CE01DF91CF911F910F91E5
:1006E000FF90EF900895CF93DF93EC0161157105B2
:1006F00051F0FB0101900020E9F73197AF01461B53
:10070000570BD3DF01C0C0DFCE01DF91CF91089539
:100710000F931F93CF93DF93CDB7DEB762970FB6DA
:10072000F894DEBF0FBECDBF8C01CB01F801118262
:10073000108213821282158214824AE0BE016F5F1A
:100740007F4FADD3BE016F5F7F4FC801CCDF629694
:100750000FB6F894DEBF0FBECDBFDF91CF911F91D2
:100760000F910895BF92CF92DF92EF92FF920F9375
:100770001F93CF93DF937C016B018A01E90124175A
:10078000350720F4812F8901C42FD82FD701119666
:100790001C921E9213961C921E92129715961C92F2
:1007A0001E92149740E050E066E272E0C7017DDFE0
:1007B000F6018481958108171907C0F48C179D07ED
:1007C00008F4EC01D601ED91FC911197EC0FFD1F9F
:1007D000B08010826D917C91600F711FC70183DF23
:1007E000D601ED91FC91EC0FFD1FB082C701DF91A6
:1007F000CF911F910F91FF90EF90DF90CF90BF901E
:100800000895CF93DF93EC01FB018617970751F012
:10081000608171816115710521F04481558145DF49
:1008200001C032DFCE01DF91CF910895FC018081BC
:1008300091811DC41F920F920FB60F9211242F9316
:100840003F938F939F93AF93BF9380913902909181
:100850003A02A0913B02B0913C023091380223E071
:10086000230F2D3720F40196A11DB11D05C026E8E8
:10087000230F0296A11DB11D2093380280933902E7
:1008800090933A02A0933B02B0933C0280913402D1
:1008900090913502A0913602B09137020196A11DC8
:1008A000B11D8093340290933502A0933602B09329
:1008B0003702BF91AF919F918F913F912F910F90F0
:1008C0000FBE0F901F9018951F920F920FB60F92A8
:1008D00011240BB60F922F933F934F935F936F9317
:1008E0007F938F939F93AF93BF93EF93FF938DE38A
:1008F00092E033DDFF91EF91BF91AF919F918F9186
:100900007F916F915F914F913F912F910F900BBE0F
:100910000F900FBE0F901F9018951F920F920FB659
:100920000F9211240BB60F922F938F939F93EF93F7
:10093000FF93E0914D02F0914E028081E0915302CD
:10094000F091540282FD12C09081809156028F5F17
:100950008F7320915702821751F0E0915602F0E018
:10096000E35CFD4F958F8093560201C08081FF911B
:10097000EF919F918F912F910F900BBE0F900FBE13
:100980000F901F901895EDE3F2E01382128288EE2B
:1009900093E0A0E0B0E084839583A683B78386E1EB
:1009A00092E09183808385EC90E09587848784EC46
:1009B00090E09787868780EC90E0918B808B81EC2C
:1009C00090E0938B828B82EC90E0958B848B86EC0D
:1009D00090E0978B868B118E128E138E148EEAED1B
:1009E000F2E011821082138212821582148240E09A
:1009F00050E066E272E0CF0158CECF93DF93CDB7DF
:100A0000DEB76A970FB6F894DEBF0FBECDBF7894FD
:100A100084B5826084BD84B5816084BD85B5826003
:100A200085BD85B5816085BD80916E0081608093B4
:100A30006E0010928100809181008260809381001D
:100A4000809181008160809381008091800081602D
:100A5000809380008091B10084608093B100809188
:100A6000B00081608093B00080919100826080939B
:100A7000910080919100816080939100809190001D
:100A80008160809390008091A10082608093A1009A
:100A90008091A10081608093A1008091A00081607D
:100AA0008093A00080912101826080932101809138
:100AB00021018160809321018091200181608093D8
:100AC000200180917A00846080937A0080917A007E
:100AD000826080937A0080917A00816080937A00AE
:100AE00080917A00806880937A001092C10006E0BD
:100AF00012E0F801819191918F019C013327F90156
:100B0000E853FE4F4491F901EE57FE4F2491222302
:100B100099F030E0220F331FF901E859FE4FA591FB
:100B2000B491F901E25BFE4F259134912FB7F8940F
:100B3000EC91E42BEC932FBF61E0D6DCF2E00231C4
:100B40001F07B9F6E0914D02F0914E0282E08083DA
:100B5000E0914902F0914A021082E0914B02F0913B
:100B60004C028FEC808310925502E0915102F0917B
:100B7000520286E08083E0914F02F0915002808122
:100B800080618083E0914F02F09150028081886003
:100B90008083E0914F02F0915002808180688083D1
:100BA000E0914F02F091500280818F7D80834CE074
:100BB000242ECE0101966C018E01035F1F4F5CE273
:100BC000352E8DE392E0B4DB181619060CF019C12E
:100BD0008DE392E08BDBF82E9AE0F916E1F01A82B1
:100BE00019821C821B821E821D826AED72E0C60180
:100BF00008DEFD861E8641E050E0B801C60118DD22
:100C0000811102C0C60140DDB6018AED92E0F9DD36
:100C1000C6010CDEF6C08091DE029091DF020797DC
:100C200008F4EFC01C8A1B8A1E8A1D8A188E1F8A30
:100C30006AED72E0CE014396E4DDF601822D119259
:100C40008A95E9F746012601A12CB12C8F89988D50
:100C5000892B09F4D8C06B887C886CE270E0C301F2
:100C60007CD3009709F4E9C07C01E618F7089FEFF0
:100C7000E916F90609F4DBC0970140E050E0BE0137
:100C80006D5E7F4FC8016EDD8D859E85009711F0EA
:100C9000E0D003C060E070E0CB01F201619371939A
:100CA0002F01C801C3DD2F89388DA7014F5F5F4F2A
:100CB000BE016D5E7F4FC80155DD8B899C89009711
:100CC00039F06D857E856115710509F0A2C0CFD11F
:100CD0008D859E859C8B8B8B8F8598899E8B8D8B2C
:100CE00089899A89988F8F8B1E861D86188A1F8600
:100CF0001A8A198AC8019ADDFFEFAF1ABF0A86E087
:100D0000A816B10409F0A2CF28E2E22E22E0F22ECA
:100D100036E0A32E32E0B32EF401819191914F0180
:100D2000F701208131818217930749F091838083F5
:100D300061E0019709F460E0F5018081D5DBF2E024
:100D4000EF0EF11C82E0A80EB11C0815190521F761
:100D5000CE0143966BDD6091280270912902CE018D
:100D60004396D6DC9AE2E92E92E0F92EF7016191E2
:100D700071917F01C601CCDC1E861D86188A1F86F4
:100D80001A8A198ABE016D5E7F4FC8013ADD398E1D
:100D90001A8E41E050E0BE01675E7F4FC80148DC1B
:100DA000811102C0C80170DC4D815E8169817A8148
:100DB000C8013EDC811102C0C80166DCB801CE0169
:100DC00043961FDDC80132DDC60130DDF4E3EF16C6
:100DD000F2E0FF0659F64F89588D6B897C898DE3C7
:100DE00092E048DA42E050E064E272E08DE392E0A3
:100DF00041DACE0143961ADD66E272E08AED92E0B6
:100E000072DC3ADBDECE85E0A816B10409F0A0CF93
:100E100019C04D895E8929893A894217530708F418
:100E200056CFA6D289899A89988F8F8B61CF95E00A
:100E3000A916B10409F08CCF1FCFE5E0AE16B104BE
:100E400009F086CFEE24EA94FE2C16CF8AED92E0CC
:100E5000EDCC1F93FC0199278827BC01E8941191E0
:100E60001032E9F3193010F01E30C8F31B3249F08C
:100E70001D3241F4689405C01CD0610F711D811DA5
:100E8000911D119110531A30B8F33EF4909580954E
:100E9000709561957F4F8F4F9F4F1F910895BB278E
:100EA0004A3031F4992322F4BDE2909581959F4F09
:100EB00016C0592F482F372F262F660F771F881FF0
:100EC000991F660F771F881F991F620F731F841F5A
:100ED000951F660F771F881F991F0895BB27FB0179
:100EE0005527AA27880F991FAA1FA41710F0A41B23
:100EF00083955051B9F7A05DAA3308F0A95DA1937D
:100F0000009779F7B111B1931192CB0100C0DC01C8
:100F1000FC01672F71917723E1F7329704C07C9130
:100F20006D9370836291AE17BF07C8F30895EE0FFB
:100F3000FF1F881F8BBF0790F691E02D19940F9328
:100F40001F93CF93DF938230910510F482E090E0FD
:100F5000E091E202F091E30220E030E0A0E0B0E0B6
:100F6000309719F140815181028113814817590747
:100F7000C8F08417950769F4109731F012960C9316
:100F8000129713961C9327C00093E2021093E3027A
:100F900022C02115310519F04217530718F49A01A0
:100FA000BD01EF01DF01F801DBCF21153105F9F0BB
:100FB000281B390B2430310580F48A819B8161150F
:100FC000710521F0FB019383828304C09093E302B7
:100FD0008093E202FE01329644C0FE01E20FF31F4D
:100FE0008193919322503109398328833AC020910B
:100FF000E0023091E102232B41F420910202309172
:1010000003023093E1022093E0022091000230912C
:1010100001022115310541F42DB73EB7409104027C
:1010200050910502241B350BE091E002F091E102A2
:10103000E217F307A0F42E1B3F0B2817390778F0AF
:10104000AC014E5F5F4F2417350748F04E0F5F1F0E
:101050005093E1024093E0028193919302C0E0E05B
:10106000F0E0CF01DF91CF911F910F910895CF93C1
:10107000DF93009709F481C0FC013297138212823A
:10108000A091E202B091E302109781F420813181B6
:10109000820F931F2091E0023091E1022817390757
:1010A00051F5F093E102E093E00267C0ED0120E02A
:1010B00030E0CE17DF0740F44A815B819E01411585
:1010C0005105F1F0EA01F5CFD383C283408151810C
:1010D000840F951FC817D90759F488819981840F07
:1010E000951F0296918380838A819B81938382835B
:1010F0002115310529F4F093E302E093E2023DC0AB
:10110000E901FB83EA8349915991C40FD51FEC177C
:10111000FD0761F480819181840F951F0296E9019A
:1011200099838883828193819B838A83E0E0F0E0C6
:1011300012968D919C911397009719F0FD01DC0197
:10114000F7CF8D919C9111979D012E5F3F4F820F9C
:10115000931F2091E0023091E1022817390769F4CA
:10116000309729F41092E3021092E20202C0138237
:101170001282B093E102A093E002DF91CF91089533
:101180006F927F928F929F92AF92BF92CF92DF9297
:10119000EF92FF920F931F93CF93DF93009781F409
:1011A000CB01DF91CF911F910F91FF90EF90DF90D6
:1011B000CF90BF90AF909F908F907F906F90BFCE59
:1011C000FC01E60FF71F9C0122503109E217F307DB
:1011D00008F4A5C0EC01D9010D911C9111970617D7
:1011E0001707A8F00530110508F497C0C801049747
:1011F0008617970708F491C002501109061B170BB8
:10120000019311936D937C93CF0131DF86C05B0115
:10121000A01AB10A4C01800E911EA091E202B09179
:10122000E302612C712CE12CF12C109709F446C0DB
:101230008D919C911197A815B905B1F56C0142E00B
:10124000C40ED11CCA14DB0478F14C018A189B0827
:10125000640142E0C40ED11C1296BC901297139602
:10126000AC91B5E0CB16D10440F0B282A383918259
:101270008082D9016D937C9309C00E5F1F4F800F50
:10128000911FF90191838083EB2DFA2FE114F10472
:1012900031F0D7011396FC93EE9312973EC0F09372
:1012A000E302E093E20239C06816790608F43C01D3
:1012B0007D0112960D90BC91A02DB7CF8091E002D8
:1012C0009091E10288169906E1F466167706C8F453
:1012D0008091000290910102009741F48DB79EB772
:1012E0004091040250910502841B950BE817F90701
:1012F000B0F4F093E102E093E002F90171836083BE
:101300000CC0CB011CDE7C01009749F0A801BE0196
:101310001BD0CE01ACDEC70104C0CE0102C080E00C
:1013200090E0DF91CF911F910F91FF90EF90DF90B0
:10133000CF90BF90AF909F908F907F906F900895C7
:1013400081E090E0F8941BC0FB01DC0102C0019039
:101350000D9241505040D8F70895FC0181918617B5
:1013600021F08823D9F7992708953197CF0108955F
:10137000FB01DC0101900D920020E1F7089511E0DE
:10138000C8E0D1E000E005C0802FFE01D0DD21964D
:10139000011DC930D10780E00807B1F7F894FFCFED
:1013A0000000E402800002000400060008000A00B9
:1013B0000C0000000000CF013A0167011B029801F8
:0813C00076018A010D0A00000C
:00000001FF
